:020000040800F2
:10000000200800205D020008B51B0008B71A000890
:10001000851B0008270B0008C12000080000000015
:10002000000000000000000000000000551C000857
:10003000290B000800000000D71B0008DD1C000889
:1000400077020008770200087702000877020008AC
:10005000770200087702000877020008770200089C
:10006000770200087702000877020008770200088C
:10007000770200087702000877020008770200087C
:10008000770200087702000877020008770200086C
:100090007702000877020008770200082B0B00089F
:1000A000770200087702000877020008770200084C
:1000B00077020008351D0008770200087702000863
:1000C000770200087702000877020008770200082C
:1000D0007702000855200008770200087702000820
:1000E000770200087702000877020008770200080C
:1000F00077020008770200087702000877020008FC
:1001000077020008770200087702000877020008EB
:1001100077020008770200087702000877020008DB
:1001200077020008770200087702000877020008CB
:1001300077020008770200087702000877020008BB
:1001400077020008770200087702000877020008AB
:10015000770200087702000877020008770200089B
:10016000770200087702000877020008770200088B
:1001700077020008770200087702000800000000FC
:10018000770200087702000877020008770200086B
:10019000770200087702000877020008770200085B
:1001A00077020008770200087702000800F002F8E2
:1001B00000F044F80AA090E8000C82448344AAF1BD
:1001C0000107DA4501D100F039F8AFF2090EBAE8BB
:1001D0000F0013F0010F18BFFB1A43F0010318477B
:1001E000042A0000242A0000103A24BF78C878C1ED
:1001F000FAD8520724BF30C830C144BF04680C602D
:10020000704700000023002400250026103A28BF74
:1002100078C1FBD8520728BF30C148BF0B60704778
:10022000642900F0A180782900F0DA80002070476E
:100230001FB502F0ADFC1FBD10B510BD00F0FEF9FA
:100240001146FFF7F5FF02F0C5F900F01CFA03B400
:10025000FFF7F2FF03BC01F077FF00000948804779
:1002600009480047FEE7FEE7FEE7FEE7FEE7FEE798
:10027000FEE7FEE7FEE7FEE704480549054A064BB0
:1002800070470000E11C0008AD01000820020020BA
:10029000200800202004002020040020704710B512
:1002A0004C1084EA530404D54042C1F1000138BF28
:1002B000491E1B4204D55242C3F1000338BF5B1EE6
:1002C00000F0BEF814F0804F04D04042C1F10001AC
:1002D00038BF491E14F0004F04D05242C3F100034E
:1002E00038BF5B1E10BD00000FB4044910B503AA4F
:1002F000029800F075F910BC5DF814FB2000002096
:100300002DE9F0410E460446002020622046E168B7
:10031000884730B3252805D0D4E901219047206AC9
:10032000401CF2E7E168204600278847050018D006
:10033000A5F14100192802D820354FF40067324654
:10034000294620462760FFF76BFF40B1012804D003
:10035000F61D26F007060836D8E7361DD6E72846EC
:10036000DAE7206ABDE8F0812DE9F0410646002475
:1003700010687529314616A510D0AFF3008000280B
:1003800002DA404213A507E031688A0701D512A5B9
:1003900002E0490704D511A5012401E0AFF3008074
:1003A00000210A2206F1240709E0B0FBF2FCB0FBB1
:1003B000F2F302FB1C00303078541846491C002828
:1003C000F3D123462A463046BDE8F04100F0AFB8ED
:1003D000000000002D0000002B00000020000000A5
:1003E00070B504460D4621461068AFF300802188A1
:1003F000090502D50F4A7A4402E00E4A7A440E32C9
:10040000002104F1240305E000F00F060009965DC9
:100410005E54491C0028F7D120780023000704D53A
:10042000702D02D009B1022311322046BDE8704080
:1004300000F07DB8C02700007047704770477047D4
:1004400053EA020C00F069802DE9F04B4FF00006F2
:10045000002B1FBFB3FA83F503FA05F424FA05F65F
:100460005E4012BF1643B2FA82F502FA05F4C5F1F6
:1004700020051EBF22FA05FC44EA0C04203556EA8A
:10048000044C4FEA144418BF641C4FF000084FF0AE
:100490000009904271EB030C39D3002919BFB1FA5E
:1004A00081F701FA07F6B0FA80F700FA07F6C7F10C
:1004B00020071EBF20FA07FC46EA0C062037B6FBD1
:1004C000F4FCA7EB0507103F07F01F0BCBF120064C
:1004D0000CFA0BFB2CFA06F644BFB3460026202F7D
:1004E000A4BF5E464FF0000B5BEA060C08BF4FF05E
:1004F000010B19EB0B09ABFB027C48EB0608C01B98
:1005000006FB02CC0BFB03CC71EB0C01C1E70B46E5
:10051000024641464846BDE8F08B13B54FF0000057
:100520004FF00001AFF30080BDE81C4070472DE99B
:10053000F0470D4699469246044600F124080168AA
:10054000880604D5E06921F01001216000E0012057
:10055000A84201DD471B00E00027A1697A1902EBE0
:100560000900081AA0612078C00602D42046AFF323
:100570000080002608E0D4E901211AF8060090471F
:10058000206A401C761C20624E45F4DB2078C006B1
:100590000AD52046AFF3008006E0D4E901213020DF
:1005A0009047206A401C2062381EA7F10107F4DC46
:1005B00007E0D4E9012118F805009047206A401CA3
:1005C0002062281EA5F10105F3DC2046AFF3008070
:1005D0002078000602D50220BDE8F0870120FBE765
:1005E000074B70B50D467B4400F011F804462846D1
:1005F00000F020F810B14FF0FF3070BD204670BD04
:10060000D71F000001694A1C02610878704700B5D5
:100610008FB0CDE901310021059105497944CDE93B
:10062000031011466846FFF76BFE0FB000BD0000D7
:10063000E5FFFFFF007B00F080007047754600F08B
:100640002BF8AE4605006946534620F00700854664
:1006500018B020B5FFF710FEBDE820404FF00006AF
:100660004FF000074FF000084FF0000B21F007019A
:10067000AC46ACE8C009ACE8C009ACE8C009ACE8DD
:10068000C0098D46704710B50446AFF30080204680
:10069000BDE81040FFF7DBBD00487047BC010020FB
:1006A0002DE9F041044620480D460470417000F0E9
:1006B0009FF9DFF878804FF40076002231464046FB
:1006C00000F07EFB052001F061FF0122314640462B
:1006D00000F076FB052001F059FF00F0ADF9144859
:1006E00006260827455D00222021404600F068FBD1
:1006F000502000F01BF9032000F018F9304600F0FC
:1007000015F9384600F012F9204600F00FF9284696
:1007100000F00CF901222021404600F051FBBDE819
:10072000F041322001F032BF4401002000040240B9
:10073000AA2B00080020401C80B20F28FBD3704772
:10074000072801D900207047012181F3108804494E
:1007500001EB80000021406881F3108870470000A1
:100760004401002070B53A4C0025204694F825102D
:1007700090F8240039B190B3012837D0022837D03F
:10078000032837D03AE0072806D8082141EA0010AC
:10079000C1B2012000F08AF9052001F0F7FEFC202B
:1007A00000F070F9052001F0F1FE002000F06AF978
:1007B000192001F0EBFE94F8240088B100F068F8ED
:1007C00094F8241044F8210094F82400401CC0B28E
:1007D00084F82400082801D384F8245070BD03E075
:1007E00000F056F82062EFE7012104E0232102E047
:1007F000452100E06721012000F058F9052001F0B3
:10080000C5FEFC2000F03EF9052001F0BFFE0020EF
:1008100000F038F9192001F0B9FE94F8240090B1E5
:1008200000F036F894F8241044F8210094F82400DD
:10083000401CC0B284F824000428CFD304F8245FFD
:100840000120A070CAE700F023F82061EEE7000065
:100850004401002070B500F0EFF80C4D002220217B
:10086000284600F0ADFA102000F060F8002000F0FB
:100870005DF80A2001F08AFE00F02EF804460122FD
:100880002021284600F09CFA200970BD0004024097
:1008900070B5104D00222021284600F091FA012069
:1008A00000F044F80A2001F071FE00F015F804048D
:1008B00000F012F804EB002400F00EF804440122CA
:1008C0002021284600F07CFA200201D5A4F1807492
:1008D000204670BD000402402DE9F0410024FFF7DE
:1008E00029FF104E104F002501220821304600F04C
:1008F00067FAFFF71FFF6006040E0022082130464A
:1009000000F05EFAD7F81C02012801D1641CE4B2A1
:10091000FFF710FF6D1CEDB2082DE5D32046BDE8B2
:10092000F0810000000402400080404270B505469E
:10093000FFF700FFFFF7FEFE0F4E0024280601D54B
:10094000012200E000221021304600F039FA012295
:100950000821304600F034FAFFF7ECFE6806050E79
:1009600000220821304600F02BFAFFF7E3FE641C5A
:10097000E4B2082CE2D370BD00040240184908B567
:1009800081F82500002281F82420104601EB800325
:10099000401CC0B25A600828F8D31248016841F0E0
:1009A000020101600068402100F0020000900C4844
:1009B000283001600C4941600121816001460B48EB
:1009C00000F00EF9052000F075FA00220221172030
:1009D00000F050FABDE80840172000F03FBA0000D0
:1009E0004401002030380240000021100004024081
:1009F00010B50D480D494024C0E900410121816036
:100A000001460B4800F0ECF80A480460052000F0AD
:100A100051FA00220221172000F02CFABDE8104004
:100A2000172000F010BA00006C0100200000211017
:100A300000040240143C0140074A08490020D2F853
:100A4000183213B1401C8842F9D3884202D304A063
:100A5000FFF74ABC7047000000804042005A620223
:100A6000414453313235365F5761697444524459B9
:100A700028292054696D65204F7574202E2E2E0D67
:100A80000A00000070B5084C0546002220212046CF
:100A900000F096F92846FFF749FF2046BDE8704070
:100AA0000122202100F08CB90004024070B50C4DE9
:100AB0000E46044600222021284600F081F944F029
:100AC0005000FFF733FF0020FFF730FF3046FFF7FD
:100AD0002DFF2846BDE870400122202100F070B9AA
:100AE0000004024070B50D46044601F02FFB6CB1C6
:100AF000012C17D101F076FB284601F038FFBDE844
:100B0000704041EC100B002001F004BC01F05AFBD6
:100B1000284601F02CFFBDE8704041EC100B00208E
:100B200001F07CBB70BDFEE77047402000F04CB880
:100B30002DE9F04796B0FFF715FE00240DAD1E4FCE
:100B400005AEDFF87880DFF878900EE02046FFF7FA
:100B5000F7FD46F8240080FB08014A460023FFF712
:100B60009EFB45F82400641CE4B238788442EDD33F
:100B7000002426464FF00A084FF04009DFF844A051
:100B800014E055F82400012C0CD190FBF8F001B2D0
:100B9000002301960296039604961A4604200096B6
:100BA00001F0A8FACAF80090641CE4B238788442D4
:100BB000E7D316B0BDE8F08729000020A025260065
:100BC000FFFF3F00143C0140044910B50A6802428F
:100BD00002D00860FFF7ACFF10BD0000143C0140DC
:100BE0002DE9F84FDFF8A091002209F1040A0AF17B
:100BF000040B4FF00F080BF1040E01260B68964012
:100C00003340B34271D14C68022C01D0122C11D167
:100C1000D40800EB84073D6A5407E40E08FA04FC8C
:100C200025EA0C05D1F810C00CFA04FC4CEA050CBE
:100C3000C7F820C007685400032591F804C0A540F8
:100C40000CF0030CAF430CFA04FC4CEA070CC0F8A0
:100C500000C04F68012F05D0022F03D0112F01D003
:100C6000122F11D18768D1F80CC0AF430CFA04FCE5
:100C70004CEA070CC0F808C04768B7430E79C6F3C2
:100C8000001696403E434660C668AE438D68A54058
:100C90003543C5604C68E4006FD53C4C256845F48D
:100CA00080452560246822F0030504F48044009404
:100CB000374C2E19D6F808789407250F08FA05F452
:100CC000A743344CA04201D100242EE0324CA04274
:100CD00001D1012429E0314CA04201D1022424E0B9
:100CE0002F4CA04202D103241FE046E02D4CA0422D
:100CF00001D1042419E02C4CA04201D1052414E0B8
:100D00002A4CA04201D106240FE0294CA04201D177
:100D100007240AE0274CA04201D1082405E0264C14
:100D2000A04201D1092400E00A24AC403C43C6F8AB
:100D30000848D9F800404D464E689C43F60300D55C
:100D40001C432C60DAF8004055464E689C43B603BD
:100D500000D51C432C60DBF800405D464E689C4388
:100D6000F60200D51C432C60DEF8004075464E6844
:100D70009C43B60200D51C432C60521C102AFFF481
:100D80003CAFBDE8F88F0000003C01404438024011
:100D90000030014000000240000402400008024010
:100DA000000C0240001002400014024000180240F3
:100DB000001C0240002002400024024041617047B4
:100DC0000AB1816170470904FBE70000014800682F
:100DD000704700001400002002480168491C0160AF
:100DE00070470000140000200B4810B5016841F462
:100DF00000710160016841F480610160016841F4A3
:100E000080710160052000F055F80F2000F006F811
:100E100000F015F8002010BD003C024010B504465B
:100E200000F0A2F94FF47A71B0FBF1F000F0B6FBDC
:100E300000222146501E00F01DF8002010BD08B50C
:100E40000020009008BD00F01F02012191404009E0
:100E5000800000F1E020C0F88011704700F01F0210
:100E6000012191404009800000F1E020C0F800110C
:100E700070470000F0B40E4B1B68C3F30223C3F1AC
:100E80000704042C00D904241D1D072D01D20023C2
:100E900000E0DB1E012606FA04F56D1E0D409D40A4
:100EA0009E40761E164045EA0601F0BC00F083BE67
:100EB0000CED00E0064A00F0070110684FF6FF0352
:100EC000184040EA012003490843106070470000C1
:100ED0000CED00E00000FA052DE9F8431D4801681B
:100EE00041F0805101600068012700F080500090BF
:100EF000380490FAA0F0DFF86080B0FA80F048F88B
:100F00002070FFF763FF04464FF47A75134E04E038
:100F1000FFF75CFF001BA84213D87068C003F7D529
:100F20004FF4003090FAA0F0B0FA80F048F820704A
:100F3000FFF74CFF044607E0FFF748FF001BA842FD
:100F400002D90320BDE8F88370688003F4D500203F
:100F5000F8E700004038024000000E4200700040F8
:100F60002DE9F05FDFF8F8A104460F46DAF800003B
:100F7000DFF8F08100F00F02C8B27A49814641F2F1
:100F8000883608F10808BA4261D202468AF8002081
:100F9000DAF8000000F00F00B8427DD12078800719
:100FA00007D5D8F80020A36822F0F0021A43C8F849
:100FB00000202078C0072DD0606801281AD00228B0
:100FC0001BD0032819D009688907002964DAD8F8EA
:100FD0000010474621F003010143C8F80010FFF755
:100FE000F5FE0546606801280FD0022818D00328B6
:100FF0001CD027E009688903E7E709688901E4E76D
:10100000FFF7E4FE401BB04258D83868C0F38100B7
:101010000128F5D188E0FFF7D9FE401BB0424DD83A
:101020003868C0F381000228F5D17DE03868FFF709
:10103000CDFE401BB042F9D940E0FFF7C7FE401B90
:10104000B0423BD8386810F00C0FF6D16CE0207835
:10105000800707D5D8F80020A36822F0F0021A43D1
:10106000C8F800202078C0074CD06068012828D03C
:10107000022829D0032827D009688907002949DADE
:10108000D8F8002022F003020243C8F80020FFF73E
:101090009DFE0546606800E03CE001281DD0022866
:1010A00029D0032838D0B3464646306810F00C0FDC
:1010B00028D0FFF78BFE411B5945F6D90320BDE828
:1010C000F09F09688903D9E709688901D6E7FFF726
:1010D0007DFE411B594502D9F0E7B34646463068CC
:1010E000C0F381000128F2D10CE0FFF76FFE411B35
:1010F000594502D9E2E7B34646463068C0F381005D
:101100000228F2D18AF80090DAF8000000F00F000F
:10111000B84209D00120D2E744462068FFF756FEC6
:10112000401BB042F9D9C9E72078400707D5D8F865
:101130000010E26821F4E0511143C8F80010207853
:10114000000708D5D8F80010226921F4604141EA6F
:10115000C201C8F800100F20FFF760FE0020AEE7C4
:10116000003C02400038024010B500F043F8084946
:101170000968F02292FAA2F201F0F001B2FA82F2CA
:10118000D140044A515CC8400349086010BD0000CA
:10119000083802409A2B00080000002010B5FFF725
:1011A000E3FF074909684FF4E05292FAA2F201F412
:1011B000E051B2FA82F2D140024A515CC84010BDFF
:1011C000083802409A2B000810B5FFF7CDFF0749F9
:1011D00009684FF4604292FAA2F201F46041B2FA57
:1011E00082F2D140024A515CC84010BD083802402A
:1011F0009A2B000830B51948006810F00C01184807
:1012000012D0184C04290ED008290DD1134A121FF0
:101210001168136801F03F015D0247F6C07304D501
:10122000B4FBF1F003E0204630BDB0FBF1F01168F3
:10123000194093FAA3F3B3FA83F3D94048431168F2
:101240004FF4403292FAA2F201F44031B2FA82F243
:10125000D140491C4900B0FBF1F030BD08380240D4
:101260000024F40040787D012DE9F84F0446007811
:10127000DFF8FCA2BF4DC0074FF0000648D0DAF8F7
:1012800000105046C1F38101012908D00068C0F365
:10129000810002280AD1281D0068400206D528686E
:1012A000800335D56068002873D031E0DFF8C49240
:1012B00009F1020989F80060FFF788FD074641F24D
:1012C000883804E0FFF782FDC11B41457AD82868C1
:1012D0008003F7D4207989F80000606860B1FFF7D7
:1012E00075FD074604E0FFF771FDC11B4145EDD8D0
:1012F00028688003F7D50BE0FFF768FD074604E098
:10130000FFF764FDC11B4145E0D828688003F7D48E
:101310002078DFF86492800744D5DAF80010504650
:1013200011F00C0F4FF0F80809D00068C0F38100ED
:1013300002280BD18E48001F0068400206D428689E
:10134000800714D5E068012823D110E0E068D0B10F
:101350000120C9F80000FFF739FD074604E0FFF758
:1013600035FDC01B6428B1D828688007F7D52868E8
:1013700098FAA8F22169B2FA82F220F0F8009140BE
:10138000084328600EE0C9F80060FFF71FFD07461C
:1013900005E0EAE0FFF71AFDC01B642812D82868B0
:1013A0008007F7D42078000725D5DFF8C48173487B
:1013B000616908F16C0881B101210160FFF706FD48
:1013C000074605E07EE0FFF701FDC01B642879D8E1
:1013D000D8F800008007F6D50DE00660FFF7F6FCB0
:1013E000074604E0FFF7F2FCC01B64286AD8D8F86F
:1013F00000008007F6D42078400753D55C48383089
:10140000016841F0805101600068DFF8748100F0EC
:1014100080500090D8F8001041F48071C8F8001096
:10142000FFF7D4FC074604E0FFF7D0FCC01B64289C
:1014300048D8D8F80000C005F6D5DFF834B10BF174
:10144000680B8BF80060FFF7C1FC074641F2883853
:1014500004E0FFF7BBFCC11B41457ED8DBF8000070
:101460008007F6D4207A8BF80000A06868B1FFF7F7
:10147000ADFC074604E0FFF7A9FCC11B41456CD851
:10148000DBF800008007F6D50CE0FFF79FFC07466D
:1014900004E0FFF79BFCC11B41455ED8DBF8000070
:1014A0008007F6D4A069E8B3DAF80010C1F381012F
:1014B00002295AD0022806D0C9F86060FFF786FCDE
:1014C00004464DE049E04F46C9F86060FFF77EFCF6
:1014D000064604E0FFF77AFC801B64283DD82868A4
:1014E0008001F7D4D4E90701084347F6C07191FAA7
:1014F000A1F1626AB1FA81F18A40A16A4FF0FF332B
:1015000003EB51014FF4403393FAA3F3B3FA83F39F
:1015100099400A4310434FF0706292FAA2F2B2FA75
:1015200082F200E01FE0E16A914008431049091F80
:10153000086001203866FFF749FC044604E0FFF725
:1015400045FC001B642808D828688001F7D50AE00C
:10155000FFF73CFC001B642802D90320BDE8F88F8C
:1015600028688001F4D40020F8E70120F6E70000A5
:10157000083802400038024000004742800E4742CF
:10158000007000404FF0E0210428086903D020F0EB
:1015900004000861704740F00400FAE710B5401EEF
:1015A000B0F1807F01D3012010BD4FF0E0246061D5
:1015B0000F21601700F0FFFA0020A06107202061D2
:1015C000002010BD70477047704770B50446006832
:1015D00001694FF00005C943890715D4C168C943A3
:1015E000890711D4E91E01610120207620688069F5
:1015F0008007204602D0FFF7E7FF04E000F098F8EC
:10160000204600F096F8257620680169C94349070D
:1016100017D4C168C943490713D46FF004010161AD
:10162000022020762068806910F4407F204602D096
:10163000FFF7CAFF04E000F07BF8204600F079F8DD
:10164000257620680169C943090716D4C168C943D2
:10165000090712D46FF00801016104202076206888
:10166000C0698007204602D0FFF7AEFF04E000F01B
:101670005FF8204600F05DF8257620680169C943CF
:10168000C90617D4C168C943C90613D46FF0100145
:101690000161082020762068C06910F4407F204650
:1016A00002D0FFF791FF04E000F042F8204600F07E
:1016B00040F8257620680169C943C90708D1C16887
:1016C000C943C90704D1891E0161204600F032F8E0
:1016D00020680169C943090609D4C168C9430906DC
:1016E00005D46FF0800101612046FFF76BFF206891
:1016F0000169C943490609D4C168C943490605D4EB
:101700006FF040010161204600F015F82068016982
:10171000C94389060BD4C168C943890607D46FF051
:10172000200101612046BDE87040FFF74CBF70BD4D
:101730007047704770477047704738B50168044676
:101740000868CA68C0F3000002F4807238B132B190
:10175000086848680090E06B40F00100E0630868AA
:101760004A69C0F3400002F0010238B132B10868A2
:1017700048680090E06B40F00400E06308684A6944
:10178000C0F3800002F0010238B132B10868486845
:101790000090E06B40F00200E06308684A69C0F323
:1017A000C00002F0010238B132B108684868009008
:1017B000E06B40F00800E0630868C968C0F34010BF
:1017C00001F0200118B111B1204600F0B9FA2068EB
:1017D0000168C068C1F3C01100F0800019B110B1F8
:1017E000204600F0BBFB21680868CA68C0F380107F
:1017F00002F04002012568B162B1CA68204622F0B9
:101800004002CA6094F8391032290CD080F839505F
:1018100000F050F9E06B002804D084F839502046DD
:10182000FFF78AFF38BD222180F83910F0E770B544
:10183000040004D094F83900002510B106E001201E
:1018400070BD84F83850204600F020F8022084F85B
:1018500039002068C16821F40051C160204600F0C1
:10186000C3FA2068016921F490410161206841694F
:1018700021F02A0141612068C16841F40051C16032
:10188000E563012084F83900002070BD30B50446BE
:101890000068204987B0884239D11F48016841F06B
:1018A00001010160006800F0010005901A48143041
:1018B000016841F0100101600068012100F0100092
:1018C00005904FF4007000900220CDE901010390D3
:1018D0000720124D049069462846FFF781F9281524
:1018E000009069462846FFF77BF92068C16821F01F
:1018F0004001C1602068C16841F02001C16025201D
:10190000FFF7ACFA032211462520FFF7B3FA07B020
:1019100030BD00000010014030380240000002409D
:101920002DE9F047044690F8390099460D46012804
:1019300001D0122857D125B31AB394F838000128E2
:1019400051D0012684F838600027E76394F8390005
:10195000122819D0222084F83900A285E2854FF49C
:101960008058E08D4B46401EE085A0684FF0000295
:1019700040454FF02001204616D100F022FBB0B9BF
:1019800004E00120BDE8F0873220E4E72069002868
:101990002068406803D0C1B225F8011B12E0C0F3F3
:1019A000080125F8021B0DE000F00BFB08B1032035
:1019B000E8E7206900282068406801D000F07F0037
:1019C00005F8010BE08D0028CBD194F839003228BE
:1019D00005D084F8396084F838700020D2E71220EE
:1019E00084F83900F7E70220CCE770472DE9F0478B
:1019F000044690F8390099460D46012801D0222866
:101A000056D125B31AB394F83800012850D00126D6
:101A100084F838600027E76394F83900222819D049
:101A2000122084F83900A284E2844FF48058E08CBC
:101A30004B46401EE084A0684FF0000240454FF046
:101A40008001204613D100F0BCFA08BB04E001205D
:101A5000BDE8F0873220E4E728882168C0F3080059
:101A60004860206908B16D1C08E0AD1C06E000F07C
:101A7000A8FA68B9216815F8010B4860E08C0028C5
:101A8000D5D14B4600224021204600F09AFA08B1F9
:101A90000320DDE794F83900322805D084F8396056
:101AA00084F838700020D3E7222084F83900F7E763
:101AB0000220CDE77047FEE770B51B4886B00025D1
:101AC000016841F001010160016801F00101059127
:101AD000016841F004010160016801F00401059111
:101AE000016841F0800101600068032400F080007B
:101AF000059002200126CDE90204CDE90065694682
:101B00000A48FFF76DF8700303948DE86100694699
:101B10000748FFF765F80C20009069460548FFF775
:101B20005FF806B070BD000030380240000002408F
:101B300000080240001C0240104810B5016886B041
:101B400041F0020101600068012100F002000590EF
:101B50000320CDE90210CDE90001094C6946204679
:101B6000FFF73EF8012211462046FFF729F901222E
:101B700002212046FFF724F906B010BD303802409C
:101B800000040240FEE710B5FFF72EF908230222F9
:101B900019214FF4B47000F05FF8B42000F0DEFCBF
:101BA0004FF4E13000F02AFDFFF7C6FFBDE810401A
:101BB000FFF782BF70470907090E002806DA00F018
:101BC0000F0000F1E02080F8141D704700F1E020C4
:101BD00080F800147047704710B5FEF73BFE0446CE
:101BE00007A0FEF781FB07A0FEF77EFB032C214632
:101BF00001D008A000E00FA0BDE81040FEF774BBC4
:101C00000D0A0000B6C1C8A1D0BEC6AC49440D0A39
:101C1000000000004572726F722C20415344313233
:101C200035362043686970204944203D20307825AE
:101C3000580D0A004F6B2C20415344313235362069
:101C400043686970204944203D20307825580D0AAA
:101C5000000000007047000070B51E4C92B00025D7
:101C6000266846F080562660246804F0805411945B
:101C7000194C266846F44046266024680DF1240C71
:101C800004F4404411940124009401940224069425
:101C90008CE80D006605CDE907616846FFF7E4FAB8
:101CA00000B1FEE7FFF718F900B1FEE70CA90F201D
:101CB00081E831004FF4A0500F904FF48050109005
:101CC00005210CA8FFF74CF9002800D0FEE712B060
:101CD00070BD00004038024000700040FFF77CB843
:101CE0001048016841F4700101600F48016841F03B
:101CF000010101600C4A00210832116002680B4B9F
:101D00001A400260031D0A4A1A60026822F4802207
:101D1000026005480C3001600249580680390860AD
:101D20007047000088ED00E000380240FFFFF6FE3B
:101D3000103000240148FFF748BC0000800100205B
:101D400010B590F83910222903D0322901D0022091
:101D500010BD8168B1F5805F11D00169002901686B
:101D60001FD0496801F07F03816A4A1C82620B70B0
:101D7000C18D491E0904090CC18518D02FE00269E4
:101D8000816A002A0268526805D0D2B20A80816A4C
:101D9000491C8162ECE7C2F308020A80816A891C4F
:101DA000F7E74A68816A4B1C83620A70E0E70168C2
:101DB000CA6822F02002CA6090F83910322910D087
:101DC0000168CA6822F48072CA6001684A6922F018
:101DD00001024A61012180F83910FFF706FE002058
:101DE00010BD1221F7E700002DE9F041044600681C
:101DF0000169E26821F440510A4302612068C16828
:101E000049F20C6291432369A268E5691A43636948
:101E10002B431A430A43C2602068416921F440728F
:101E2000A16911434161E06964263225B0F5004F94
:101E3000484A494920681DD0884201D0904269D162
:101E4000FFF7C2F900EBC00101EB00106168B0467A
:101E50008900B0FBF1F1B1FBF8F6FFF7B5F900EB43
:101E6000C00101EB001061688900B0FBF1F7FFF7DA
:101E7000ABF968E0884201D0904219D1FFF7A4F98C
:101E800000EBC00101EB00106168B0464900B0FBF7
:101E9000F1F1B1FBF8F6FFF797F900EBC00101EBA8
:101EA000001061684900B0FBF1F7FFF78DF918E009
:101EB000FFF774F900EBC00101EB00106168B04658
:101EC0004900B0FBF1F1B1FBF8F6FFF767F900EB61
:101ED000C00101EB001061684900B0FBF1F7FFF7AA
:101EE0005DF900EBC00101EB001061684900B0FB37
:101EF000F1F1B1FBF8F06FF01801484307EB8000F7
:101F000005EB0011B1FBF8F0216866F31F10886043
:101F1000BDE8F081FFF742F900EBC00101EB0010D2
:101F20006168B0468900B0FBF1F1B1FBF8F6FFF74C
:101F300035F900EBC00101EB001061688900B0FBCE
:101F4000F1F7FFF72BF900EBC00101EB001061681E
:101F50008900CCE7001401400010014090F83910CE
:101F6000122903D0322901D0022070478168B1F5CF
:101F7000805F016A0BD04A1C0262026809785160D6
:101F8000C18C491E0904090CC1840ED017E00988D0
:101F90000268C1F30801516001690029016A02D099
:101FA000491C0162ECE7891CFBE70168CA6822F062
:101FB0008002CA600068C16841F04001C160002031
:101FC00070472DE9F0471D4690460F460446FEF740
:101FD000FDFE06465FEA08004FF000094FF00108D9
:101FE00008D030E0681C05D095B1FEF7EFFE801BED
:101FF000A8420DD82068006837EA0000F2D127E037
:10200000681C20D025B1FEF7E1FE801BA8421AD93A
:102010002068C16821F08001C1602068C16821F09A
:102020002001C1602068C16821F48071C16020680E
:10203000416921F00101416184F8398084F83890C8
:102040000320BDE8F0872068006837EA0000D7D099
:102050000020F6E738B5184800680068C0438006DD
:1020600022D44FF47A73012269461348FFF758FCD3
:10207000124A1088010417D441049DF800104FF053
:10208000000304D50A290ED140F4004012E00D29C6
:102090000ED0C0F30D04084D401CC83D80B2295538
:1020A0001080C72800D913800348FFF746FB38BDCE
:1020B00040F480401080F7E7F40000201C0000206E
:1020C000FEE72DE9F04115460E460746002405E0DF
:1020D000315D384600F006F8641CE4B2AC42F7D338
:1020E000BDE8F08113B50A23012201A9FFF77EFCA8
:1020F0001CBD00002DE9F0470546124EDDE90A40FF
:10210000DDE908C7B046DDF83090A8F80010A8F85F
:102110000220A8F80430A8F806C0A8F80870A8F8AB
:102120000A40A8F80C00A8F80E90002405E0082149
:10213000304600F075FA641CE4B2AC42F7D3BDE857
:10214000F08700003401002070470000F0B51A4805
:1021500087B0016841F008010160016801F00801E1
:102160000591016841F0040101600068012600F05A
:1021700004000590FF20CDE9000602240F4F0394D0
:10218000694602943846FEF72BFD4FF4E075009542
:102190000394CDE901640A4C69462046FEF720FD10
:1021A0000022FF213846FEF70BFE0022294620467A
:1021B000FEF706FE07B0F0BD30380240000C0240CA
:1021C0000008024006480021C0F8A012C0F89C1286
:1021D000C0F898120122C0F89822C0F898127047EF
:1021E000000041420C480021C0F8A012C0F89C1227
:1021F000C0F898120122C0F89822C0F89812C0F8CE
:10220000A012C0F8A022C0F8A012C0F89C12C0F81A
:102210009C22C0F89C127047000041422DE9F04317
:102220009FED371B04462DED028B81B09FED328B65
:1022300053EC112B51EC100B00F012FA53EC182B4D
:1022400000F0A8FB00F064FB05468DF800409DF807
:102250000010DFF8B4904846FEF7B0FD2B4C012685
:10226000C4F8A0620027C4F8A0729DF80010DFF83F
:10227000A080280E88F800108DF800009DF800104E
:10228000484604F52774FEF799FD666067609DF87F
:10229000001088F80110280C8DF800009DF800103F
:1022A0004846FEF78BFD666067609DF8001088F871
:1022B0000210280A8DF800009DF800104846FEF72D
:1022C0007DFD666067609DF8001088F803108DF84A
:1022D00000509DF800104846FEF770FD666067608C
:1022E0009DF8001088F804102660276001B0BDEC4E
:1022F000028BBDE8F0830000000000D04D628041F9
:102300000000000080842E41000C02400000414289
:1023100024000020F0B506462DED028B81B09FED24
:102320003C8B9FED3D1B51EC100B53EC112B00F03F
:1023300097F953EC182B00F02DFB00F0E9FA8DF81B
:1023400000000021364C374A0D4601239DF80070ED
:10235000CF4007F00107C4F89C72C2F8A032C2F85F
:10236000A052491CC9B20829F0D3010A8DF8001007
:1023700000219DF80070CF4007F00107C4F89C725F
:10238000C2F8A032C2F8A052491CC9B20829F0D341
:10239000010C8DF8001000219DF80070CF4007F06F
:1023A0000107C4F89C72C2F8A032C2F8A052491CBE
:1023B000C9B20829F0D3000E8DF8000000209DF866
:1023C0000010C14001F00101C4F89C12C2F8A03213
:1023D000C2F8A052401CC0B20828F0D38DF80060AB
:1023E00000209DF80010C14001F00101C4F89C12CA
:1023F000C2F8A032C2F8A052401CC0B20828F0D3E4
:10240000C2F89C32C2F89C5201B0BDEC028BF0BD08
:10241000000000D04D6280410000000080842E4109
:1024200000804142000041422DE9F0410F4D04007F
:1024300016460F460DD00EA0FDF756FF3146384622
:10244000FEF72EF92046FEF799FA04202870BDE821
:10245000F08114A0FDF748FF31463846FEF720F919
:102460002046FEF78BFA0820F0E700002900002044
:102470000D0A504741D4F6D2E6203D2025642C2099
:10248000CAFDBEDDCAE4B3F6CBD9C2CA203D2025C1
:10249000642C20B2EEB7D634C2B7C9A8C3E80D0A7F
:1024A0000D0A00000D0A504741D4F6D2E6203D2027
:1024B00025642C20CAFDBEDDCAE4B3F6CBD9C2CA5E
:1024C000203D2025642C20B5A5B6CB38C2B7C9A8BD
:1024D000C3E80D0A0D0A0000F0B51E4D012287B0B9
:1024E00051022846FEF76CFC012211022846FEF735
:1024F00067FC012220212846FEF762FC0022082109
:102500002846FEF75DFC012210212846FEF758FC04
:1025100011490026086840F002000860086801249C
:1025200000F0020005904FF44E700327CDE900043F
:10253000CDE9024769462846FEF752FBC020CDE9A7
:102540000006CDE9024769462846FEF749FB07B079
:10255000F0BD0000000402403038024010B50446CF
:102560000420FFF70FF80148046010BD1800002098
:1025700070B5054600244FF47A7603E0304600F04B
:1025800005F8641CAC42F9D370BD000070B54FF083
:10259000E02500216C69094AAB6912685043AA69B9
:1025A0009A42FCD002D2A3EB020302E0A4EB0206A3
:1025B0003344194413468142F1D370BD1800002002
:1025C00003490A685206FCD5C2B24A60704700004F
:1025D00000100140FFF7D7FA6420FFF7C9FF42F26D
:1025E00010710120FEF77EFAFFF776FF00221146F8
:1025F0001046FFF719FFFFF7EFFAFEE70749064A13
:10260000C1E9002000208860C860086188610C2052
:1026100048610846FFF70BB900100140F4000020A4
:102620007CB505460BA00C46006800900AA002226B
:102630000068019069460948FFF743FDA2B22946A8
:102640000648FFF73EFD022201A90448FFF739FDC5
:102650007CBD000003FC0000FC030000F40000202F
:102660002DE9C04130B4DFF8A0C23CEA111418BF14
:102670003CEA131400F0EC8081EA03051CEA111413
:1026800044EAD57418BF1CEA131500F0C780A4EB08
:1026900005044FF0004545EAC12145EAC32341EA5C
:1026A000505143EA525304F17F74994204F50034C7
:1026B0004FEAC0204FEAC22208BF904200F09C803F
:1026C0004FEA13650FF24016765D4FEA134506FB9D
:1026D00005F7C7F1807706FB07F74FEAD737A7FB67
:1026E00003687642C8F58038A7FB06CE38BFA8F14C
:1026F000010807FB08E64FF0000EA6FB028CE6FB84
:1027000003CEDCF1000CCEF1004E38BFAEF1010E6D
:10271000A6FB0C584FF000074FF00005E6FB0E87B4
:10272000A1FB08C6A0FB07CE16EB0E0645F100057F
:10273000E1FB076515F1E04E7EBFA4F580345FEA4A
:1027400046066D4116F1800745F100054FEA17274F
:102750004FEA066647EA0567A6F1DE46B6F1805FF6
:102760004FEA15251FD9384624F0010C05EBC4713A
:10277000BCF1FE6F01EB0C1102D8F0BCBDE800818A
:1027800024425CBF01F5801E9EEAC47F02D4F0BCE7
:10279000BDE80081244238D4F0BCA1F1C041BDE8BD
:1027A000004100F0EFB94FEAD22242EA43524FEA29
:1027B000D323A7FB02864FEAD02040EA415007FB13
:1027C00003661EEA0E0F4FEAD12105FB026658BFD1
:1027D000A6EB0056B6EB00564FEA520E4EEAC37E09
:1027E00018EB0E0E56EB530EBDD518EB02085E41EA
:1027F0007F1C55F10005B6E74FF480154FF0000738
:102800004FF000064FF00008ADE7F0BC4FF00000BD
:1028100001F1C04101F00041BDE8008111EA0C1F47
:102820000CEA131500D00CE013EA0C1F00F0258011
:102830004FF00000F0BC81EA030101F00041BDE867
:102840000081F0BCBDE8004181EA030100F09AB9C3
:10285000F0BCBDE8004170B500F046F9097EFC3ED1
:1028600000F007B881EA03014FF0000001F00041D9
:10287000704781EA030100F085B9F0BCBDE8004172
:102880004FF0000021497047FFFDFBF9F7F5F4F226
:10289000F0EEEDEBE9E8E6E4E3E1E0DEDDDBDAD8FB
:1028A000D7D5D4D3D1D0CFCDCCCBCAC8C7C6C5C459
:1028B000C2C1C0BFBEBDBCBBBAB9B8B7B6B5B4B370
:1028C000B2B1B0AFAEADACABAAA9A8A8A7A6A5A45B
:1028D000A3A3A2A1A09F9F9E9D9C9C9B9A9999981F
:1028E0009797969595949393929191908F8F8E8EC2
:1028F0008D8C8C8B8B8A898988888787868585844F
:1029000084838382828181800000FF070000F87F3A
:102910004FEA41034FEA5353A3F58063D3F11E03FB
:10292000C8BFD3F1210C0CDD4FF0004242EAC122B6
:1029300042EA505232FA03FC8CEAE17CACEBE170E3
:102940007047102BC4BF0020704703F5787CBCF1A2
:10295000FF3F04D06FF0004282EA2100704770B55B
:1029600000F0C2F84992248000207047F2E7B0FAE4
:1029700080F310FA03F10AD0C3F11D0303F580635D
:102980004FEA41504FEA035202EBD12170474FF01A
:1029900000007047DFF848C170B51CEA111E1EBF69
:1029A0001CEA13159EEA0C0F95EA0C0F00F06F80DD
:1029B00081EA030423EA4C134EEAD47E21EA4C1147
:1029C00041F4801143F48013AE44A1FB024CA0FB00
:1029D0000365AEF17F7E361955EB0C05A1FB034C68
:1029E0004CF10003A0FB021C16EB0C06654153F1F1
:1029F0000003094218BF46F0010613F4007F0BD113
:102A00004FEA03314FEA0530340341EA155140EAF9
:102A100016506FF003020AE04FEAC3214FEAC520C7
:102A2000F40241EA555140EA56506FF0020202EBBF
:102A30002E4201EB025585EACE710AD05FEA440CC2
:102A400018BF24F0004450F1000041F1000120EAD9
:102A5000D47040F2FE7C624500D270BDA84214BF23
:102A60004FF080444FF04044002E08BF0024BEF1D8
:102A7000806FA8BFA1F1C041BDE8704080F28280A4
:102A80004FF0000001F1C04101F0004170479EEAA3
:102A90000C0F0CEA131518BF95EA0C0F06D04FF077
:102AA000000081EA030E0EF0004170BD00F01CF83A
:102AB0008900013E00F007B800F009B84FEA430C66
:102AC0005FEA5C5C08D081EA030100F05BB84FEA82
:102AD000410C5FEA5C5CF6D14FF0000001497047A1
:102AE0000000FF070000F87F0EF1020E2EF0030E2B
:102AF0005EF8046B364205D4012A43EB030515F555
:102B0000001F12D8012841EB010C1CF5001F0CD846
:102B10000ED14FEAD17C15F5001F0CEB4C0C0CF1DB
:102B2000020C08BF4CEBD37C04E04FF0080C01E032
:102B30004FEAD37C0CEB4C0526FA05F606F00706A7
:102B4000B6F1040C06D20EEB860CBDE870404CF0DA
:102B5000010C6047DFE80CF0090B02024FF0004166
:102B60004FF00000A1F5002170BD19461046012864
:102B700051EB010418BFD4F5001484BF002001F00C
:102B8000004170BD0808A0F500114FEA31017047FF
:102B90004FF04070E1EE100A7047000000000102A3
:102BA00003040102030406070809F0E0D0C0B0A145
:102BB00092827263534333201303303132333435FE
:102BC0003637383941424344454640305800303169
:102BD0003233343536373839616263646566403084
:102BE00078000000042C0008000000202C000000E9
:102BF000E8010008302C00082C000020F407000039
:102C0000040200080024F40000000000000000009E
:102C1000010203040607080900000000000000008C
:102C200000000000000000000000000000000000A4
:04000005080001AD41
:00000001FF
